{
  "_format": "hh-sol-artifact-1",
  "contractName": "HogwartsNFT",
  "sourceName": "contracts/HogwartsNFT.sol",
  "abi": [
    {
      "inputs": [],
      "stateMutability": "nonpayable",
      "type": "constructor"
    },
    {
      "inputs": [
        {
          "internalType": "address",
          "name": "sender",
          "type": "address"
        },
        {
          "internalType": "uint256",
          "name": "tokenId",
          "type": "uint256"
        },
        {
          "internalType": "address",
          "name": "owner",
          "type": "address"
        }
      ],
      "name": "ERC721IncorrectOwner",
      "type": "error"
    },
    {
      "inputs": [
        {
          "internalType": "address",
          "name": "operator",
          "type": "address"
        },
        {
          "internalType": "uint256",
          "name": "tokenId",
          "type": "uint256"
        }
      ],
      "name": "ERC721InsufficientApproval",
      "type": "error"
    },
    {
      "inputs": [
        {
          "internalType": "address",
          "name": "approver",
          "type": "address"
        }
      ],
      "name": "ERC721InvalidApprover",
      "type": "error"
    },
    {
      "inputs": [
        {
          "internalType": "address",
          "name": "operator",
          "type": "address"
        }
      ],
      "name": "ERC721InvalidOperator",
      "type": "error"
    },
    {
      "inputs": [
        {
          "internalType": "address",
          "name": "owner",
          "type": "address"
        }
      ],
      "name": "ERC721InvalidOwner",
      "type": "error"
    },
    {
      "inputs": [
        {
          "internalType": "address",
          "name": "receiver",
          "type": "address"
        }
      ],
      "name": "ERC721InvalidReceiver",
      "type": "error"
    },
    {
      "inputs": [
        {
          "internalType": "address",
          "name": "sender",
          "type": "address"
        }
      ],
      "name": "ERC721InvalidSender",
      "type": "error"
    },
    {
      "inputs": [
        {
          "internalType": "uint256",
          "name": "tokenId",
          "type": "uint256"
        }
      ],
      "name": "ERC721NonexistentToken",
      "type": "error"
    },
    {
      "inputs": [
        {
          "internalType": "address",
          "name": "owner",
          "type": "address"
        }
      ],
      "name": "OwnableInvalidOwner",
      "type": "error"
    },
    {
      "inputs": [
        {
          "internalType": "address",
          "name": "account",
          "type": "address"
        }
      ],
      "name": "OwnableUnauthorizedAccount",
      "type": "error"
    },
    {
      "anonymous": false,
      "inputs": [
        {
          "indexed": true,
          "internalType": "address",
          "name": "owner",
          "type": "address"
        },
        {
          "indexed": true,
          "internalType": "address",
          "name": "approved",
          "type": "address"
        },
        {
          "indexed": true,
          "internalType": "uint256",
          "name": "tokenId",
          "type": "uint256"
        }
      ],
      "name": "Approval",
      "type": "event"
    },
    {
      "anonymous": false,
      "inputs": [
        {
          "indexed": true,
          "internalType": "address",
          "name": "owner",
          "type": "address"
        },
        {
          "indexed": true,
          "internalType": "address",
          "name": "operator",
          "type": "address"
        },
        {
          "indexed": false,
          "internalType": "bool",
          "name": "approved",
          "type": "bool"
        }
      ],
      "name": "ApprovalForAll",
      "type": "event"
    },
    {
      "anonymous": false,
      "inputs": [
        {
          "indexed": false,
          "internalType": "uint256",
          "name": "_fromTokenId",
          "type": "uint256"
        },
        {
          "indexed": false,
          "internalType": "uint256",
          "name": "_toTokenId",
          "type": "uint256"
        }
      ],
      "name": "BatchMetadataUpdate",
      "type": "event"
    },
    {
      "anonymous": false,
      "inputs": [
        {
          "indexed": false,
          "internalType": "uint256",
          "name": "_tokenId",
          "type": "uint256"
        }
      ],
      "name": "MetadataUpdate",
      "type": "event"
    },
    {
      "anonymous": false,
      "inputs": [
        {
          "indexed": false,
          "internalType": "uint256",
          "name": "house",
          "type": "uint256"
        },
        {
          "indexed": false,
          "internalType": "address",
          "name": "minter",
          "type": "address"
        },
        {
          "indexed": false,
          "internalType": "string",
          "name": "name",
          "type": "string"
        }
      ],
      "name": "NftMinted",
      "type": "event"
    },
    {
      "anonymous": false,
      "inputs": [
        {
          "indexed": true,
          "internalType": "address",
          "name": "previousOwner",
          "type": "address"
        },
        {
          "indexed": true,
          "internalType": "address",
          "name": "newOwner",
          "type": "address"
        }
      ],
      "name": "OwnershipTransferred",
      "type": "event"
    },
    {
      "anonymous": false,
      "inputs": [
        {
          "indexed": true,
          "internalType": "address",
          "name": "from",
          "type": "address"
        },
        {
          "indexed": true,
          "internalType": "address",
          "name": "to",
          "type": "address"
        },
        {
          "indexed": true,
          "internalType": "uint256",
          "name": "tokenId",
          "type": "uint256"
        }
      ],
      "name": "Transfer",
      "type": "event"
    },
    {
      "inputs": [
        {
          "internalType": "address",
          "name": "to",
          "type": "address"
        },
        {
          "internalType": "uint256",
          "name": "tokenId",
          "type": "uint256"
        }
      ],
      "name": "approve",
      "outputs": [],
      "stateMutability": "nonpayable",
      "type": "function"
    },
    {
      "inputs": [
        {
          "internalType": "address",
          "name": "owner",
          "type": "address"
        }
      ],
      "name": "balanceOf",
      "outputs": [
        {
          "internalType": "uint256",
          "name": "",
          "type": "uint256"
        }
      ],
      "stateMutability": "view",
      "type": "function"
    },
    {
      "inputs": [
        {
          "internalType": "uint256",
          "name": "tokenId",
          "type": "uint256"
        }
      ],
      "name": "getApproved",
      "outputs": [
        {
          "internalType": "address",
          "name": "",
          "type": "address"
        }
      ],
      "stateMutability": "view",
      "type": "function"
    },
    {
      "inputs": [
        {
          "internalType": "address",
          "name": "_user",
          "type": "address"
        }
      ],
      "name": "getHouseIndex",
      "outputs": [
        {
          "internalType": "uint256",
          "name": "",
          "type": "uint256"
        }
      ],
      "stateMutability": "view",
      "type": "function"
    },
    {
      "inputs": [
        {
          "internalType": "address",
          "name": "",
          "type": "address"
        }
      ],
      "name": "hasMinted",
      "outputs": [
        {
          "internalType": "bool",
          "name": "",
          "type": "bool"
        }
      ],
      "stateMutability": "view",
      "type": "function"
    },
    {
      "inputs": [
        {
          "internalType": "address",
          "name": "_user",
          "type": "address"
        }
      ],
      "name": "hasMintedNFT",
      "outputs": [
        {
          "internalType": "bool",
          "name": "",
          "type": "bool"
        }
      ],
      "stateMutability": "view",
      "type": "function"
    },
    {
      "inputs": [
        {
          "internalType": "address",
          "name": "owner",
          "type": "address"
        },
        {
          "internalType": "address",
          "name": "operator",
          "type": "address"
        }
      ],
      "name": "isApprovedForAll",
      "outputs": [
        {
          "internalType": "bool",
          "name": "",
          "type": "bool"
        }
      ],
      "stateMutability": "view",
      "type": "function"
    },
    {
      "inputs": [
        {
          "internalType": "address",
          "name": "recipient",
          "type": "address"
        },
        {
          "internalType": "uint256",
          "name": "house",
          "type": "uint256"
        },
        {
          "internalType": "string",
          "name": "name",
          "type": "string"
        }
      ],
      "name": "mintNFT",
      "outputs": [],
      "stateMutability": "nonpayable",
      "type": "function"
    },
    {
      "inputs": [],
      "name": "name",
      "outputs": [
        {
          "internalType": "string",
          "name": "",
          "type": "string"
        }
      ],
      "stateMutability": "view",
      "type": "function"
    },
    {
      "inputs": [],
      "name": "owner",
      "outputs": [
        {
          "internalType": "address",
          "name": "",
          "type": "address"
        }
      ],
      "stateMutability": "view",
      "type": "function"
    },
    {
      "inputs": [
        {
          "internalType": "uint256",
          "name": "tokenId",
          "type": "uint256"
        }
      ],
      "name": "ownerOf",
      "outputs": [
        {
          "internalType": "address",
          "name": "",
          "type": "address"
        }
      ],
      "stateMutability": "view",
      "type": "function"
    },
    {
      "inputs": [],
      "name": "renounceOwnership",
      "outputs": [],
      "stateMutability": "nonpayable",
      "type": "function"
    },
    {
      "inputs": [
        {
          "internalType": "address",
          "name": "",
          "type": "address"
        }
      ],
      "name": "s_addressToHouse",
      "outputs": [
        {
          "internalType": "uint256",
          "name": "",
          "type": "uint256"
        }
      ],
      "stateMutability": "view",
      "type": "function"
    },
    {
      "inputs": [
        {
          "internalType": "address",
          "name": "",
          "type": "address"
        }
      ],
      "name": "s_addressToName",
      "outputs": [
        {
          "internalType": "string",
          "name": "",
          "type": "string"
        }
      ],
      "stateMutability": "view",
      "type": "function"
    },
    {
      "inputs": [
        {
          "internalType": "uint256",
          "name": "",
          "type": "uint256"
        }
      ],
      "name": "s_requestIdToSender",
      "outputs": [
        {
          "internalType": "address",
          "name": "",
          "type": "address"
        }
      ],
      "stateMutability": "view",
      "type": "function"
    },
    {
      "inputs": [
        {
          "internalType": "address",
          "name": "from",
          "type": "address"
        },
        {
          "internalType": "address",
          "name": "to",
          "type": "address"
        },
        {
          "internalType": "uint256",
          "name": "tokenId",
          "type": "uint256"
        }
      ],
      "name": "safeTransferFrom",
      "outputs": [],
      "stateMutability": "nonpayable",
      "type": "function"
    },
    {
      "inputs": [
        {
          "internalType": "address",
          "name": "from",
          "type": "address"
        },
        {
          "internalType": "address",
          "name": "to",
          "type": "address"
        },
        {
          "internalType": "uint256",
          "name": "tokenId",
          "type": "uint256"
        },
        {
          "internalType": "bytes",
          "name": "data",
          "type": "bytes"
        }
      ],
      "name": "safeTransferFrom",
      "outputs": [],
      "stateMutability": "nonpayable",
      "type": "function"
    },
    {
      "inputs": [
        {
          "internalType": "address",
          "name": "operator",
          "type": "address"
        },
        {
          "internalType": "bool",
          "name": "approved",
          "type": "bool"
        }
      ],
      "name": "setApprovalForAll",
      "outputs": [],
      "stateMutability": "nonpayable",
      "type": "function"
    },
    {
      "inputs": [
        {
          "internalType": "bytes4",
          "name": "interfaceId",
          "type": "bytes4"
        }
      ],
      "name": "supportsInterface",
      "outputs": [
        {
          "internalType": "bool",
          "name": "",
          "type": "bool"
        }
      ],
      "stateMutability": "view",
      "type": "function"
    },
    {
      "inputs": [],
      "name": "symbol",
      "outputs": [
        {
          "internalType": "string",
          "name": "",
          "type": "string"
        }
      ],
      "stateMutability": "view",
      "type": "function"
    },
    {
      "inputs": [
        {
          "internalType": "uint256",
          "name": "tokenId",
          "type": "uint256"
        }
      ],
      "name": "tokenURI",
      "outputs": [
        {
          "internalType": "string",
          "name": "",
          "type": "string"
        }
      ],
      "stateMutability": "view",
      "type": "function"
    },
    {
      "inputs": [
        {
          "internalType": "address",
          "name": "from",
          "type": "address"
        },
        {
          "internalType": "address",
          "name": "to",
          "type": "address"
        },
        {
          "internalType": "uint256",
          "name": "tokenId",
          "type": "uint256"
        }
      ],
      "name": "transferFrom",
      "outputs": [],
      "stateMutability": "nonpayable",
      "type": "function"
    },
    {
      "inputs": [
        {
          "internalType": "address",
          "name": "newOwner",
          "type": "address"
        }
      ],
      "name": "transferOwnership",
      "outputs": [],
      "stateMutability": "nonpayable",
      "type": "function"
    }
  ],
  "bytecode": "0x610180604052604561010081815260809182919062001c2161012039815260200160405180608001604052806045815260200162001bdc60459139815260200160405180608001604052806044815260200162001b9860449139815260200160405180608001604052806044815260200162001c666044913990526200008a90600d90600462000195565b503480156200009857600080fd5b50336040518060400160405280600c81526020016b121bd9ddd85c9d1cc813919560a21b81525060405180604001604052806002815260200161048560f41b8152508160009081620000eb919062000311565b506001620000fa828262000311565b5050506001600160a01b0381166200012c57604051631e4fbdf760e01b81526000600482015260240160405180910390fd5b620001378162000143565b506000600c55620003dd565b600780546001600160a01b038381166001600160a01b0319831681179093556040519116919082907f8be0079c531659141344cd1fd0a4f28419497f9722a3daafe3b4186f6b6457e090600090a35050565b828054828255906000526020600020908101928215620001e0579160200282015b82811115620001e05782518290620001cf908262000311565b5091602001919060010190620001b6565b50620001ee929150620001f2565b5090565b80821115620001ee57600062000209828262000213565b50600101620001f2565b508054620002219062000282565b6000825580601f1062000232575050565b601f01602090049060005260206000209081019062000252919062000255565b50565b5b80821115620001ee576000815560010162000256565b634e487b7160e01b600052604160045260246000fd5b600181811c908216806200029757607f821691505b602082108103620002b857634e487b7160e01b600052602260045260246000fd5b50919050565b601f8211156200030c57600081815260208120601f850160051c81016020861015620002e75750805b601f850160051c820191505b818110156200030857828155600101620002f3565b5050505b505050565b81516001600160401b038111156200032d576200032d6200026c565b62000345816200033e845462000282565b84620002be565b602080601f8311600181146200037d5760008415620003645750858301515b600019600386901b1c1916600185901b17855562000308565b600085815260208120601f198616915b82811015620003ae578886015182559484019460019091019084016200038d565b5085821015620003cd5787850151600019600388901b60f8161c191681555b5050505050600190811b01905550565b6117ab80620003ed6000396000f3fe608060405234801561001057600080fd5b506004361061014d5760003560e01c806370a08231116100c3578063b88d4fde1161007c578063b88d4fde146102f8578063c87b56dd1461030b578063cd6542321461031e578063e28cb25a1461033e578063e985e9c51461036a578063f2fde38b1461037d57600080fd5b806370a0823114610288578063715018a61461029b5780638da5cb5b146102a357806395d89b41146102b4578063a22cb465146102bc578063a36f573b146102cf57600080fd5b806323b872dd1161011557806323b872dd146101e257806333975f94146101f557806338e21cce1461020857806342842e0e1461022b5780634a4b36c21461023e5780636352211e1461027557600080fd5b806301ffc9a71461015257806306fdde031461017a578063081812fc1461018f578063095ea7b3146101ba5780631e576912146101cf575b600080fd5b610165610160366004611222565b610390565b60405190151581526020015b60405180910390f35b6101826103bb565b604051610171919061128f565b6101a261019d3660046112a2565b61044d565b6040516001600160a01b039091168152602001610171565b6101cd6101c83660046112d7565b610476565b005b6101cd6101dd36600461138d565b610485565b6101cd6101f03660046113f8565b610673565b610182610203366004611434565b6106fe565b610165610216366004611434565b600a6020526000908152604090205460ff1681565b6101cd6102393660046113f8565b610798565b61026761024c366004611434565b6001600160a01b031660009081526009602052604090205490565b604051908152602001610171565b6101a26102833660046112a2565b6107b8565b610267610296366004611434565b6107c3565b6101cd61080b565b6007546001600160a01b03166101a2565b61018261081f565b6101cd6102ca36600461144f565b61082e565b6101a26102dd3660046112a2565b6008602052600090815260409020546001600160a01b031681565b6101cd61030636600461148b565b610839565b6101826103193660046112a2565b610850565b61026761032c366004611434565b60096020526000908152604090205481565b61016561034c366004611434565b6001600160a01b03166000908152600a602052604090205460ff1690565b610165610378366004611507565b610961565b6101cd61038b366004611434565b61098f565b60006001600160e01b03198216632483248360e11b14806103b557506103b5826109a3565b92915050565b6060600080546103ca9061153a565b80601f01602080910402602001604051908101604052809291908181526020018280546103f69061153a565b80156104435780601f1061041857610100808354040283529160200191610443565b820191906000526020600020905b81548152906001019060200180831161042657829003601f168201915b5050505050905090565b6000610458826109f3565b506000828152600460205260409020546001600160a01b03166103b5565b610481828233610a2c565b5050565b61048d610a39565b6001600160a01b0383166000908152600a602052604090205460ff161561050a5760405162461bcd60e51b815260206004820152602660248201527f596f75206861766520616c7265616479206d696e74656420796f757220686f756044820152651cd94813919560d21b60648201526084015b60405180910390fd5b600c546105178482610a66565b6105c681600d858154811061052e5761052e611574565b9060005260206000200180546105439061153a565b80601f016020809104026020016040519081016040528092919081815260200182805461056f9061153a565b80156105bc5780601f10610591576101008083540402835291602001916105bc565b820191906000526020600020905b81548152906001019060200180831161059f57829003601f168201915b5050505050610a80565b6001600160a01b0384166000908152600960209081526040808320869055600b90915290206105f583826115d8565b506001600c60008282546106099190611698565b90915550506001600160a01b0384166000908152600a602052604090819020805460ff19166001179055517ffe281bcdb072dfbddfafb1763ee8ba9b91ba790715c617af593493fe865ac73790610665908590879086906116b9565b60405180910390a150505050565b6001600160a01b03821661069d57604051633250574960e11b815260006004820152602401610501565b60006106aa838333610ad0565b9050836001600160a01b0316816001600160a01b0316146106f8576040516364283d7b60e01b81526001600160a01b0380861660048301526024820184905282166044820152606401610501565b50505050565b600b60205260009081526040902080546107179061153a565b80601f01602080910402602001604051908101604052809291908181526020018280546107439061153a565b80156107905780601f1061076557610100808354040283529160200191610790565b820191906000526020600020905b81548152906001019060200180831161077357829003601f168201915b505050505081565b6107b383838360405180602001604052806000815250610839565b505050565b60006103b5826109f3565b60006001600160a01b0382166107ef576040516322718ad960e21b815260006004820152602401610501565b506001600160a01b031660009081526003602052604090205490565b610813610a39565b61081d6000610bc9565b565b6060600180546103ca9061153a565b610481338383610c1b565b610844848484610673565b6106f884848484610cba565b606061085b826109f3565b50600082815260066020526040812080546108759061153a565b80601f01602080910402602001604051908101604052809291908181526020018280546108a19061153a565b80156108ee5780601f106108c3576101008083540402835291602001916108ee565b820191906000526020600020905b8154815290600101906020018083116108d157829003601f168201915b50505050509050600061090c60408051602081019091526000815290565b9050805160000361091e575092915050565b8151156109505780826040516020016109389291906116ec565b60405160208183030381529060405292505050919050565b61095984610de3565b949350505050565b6001600160a01b03918216600090815260056020908152604080832093909416825291909152205460ff1690565b610997610a39565b6109a08161098f565b50565b60006001600160e01b031982166380ac58cd60e01b14806109d457506001600160e01b03198216635b5e139f60e01b145b806103b557506301ffc9a760e01b6001600160e01b03198316146103b5565b6000818152600260205260408120546001600160a01b0316806103b557604051637e27328960e01b815260048101849052602401610501565b6107b38383836001610e58565b6007546001600160a01b0316331461081d5760405163118cdaa760e01b8152336004820152602401610501565b610481828260405180602001604052806000815250610f5e565b6000828152600660205260409020610a9882826115d8565b506040518281527ff8e1a15aba9398e019f0b49df1a4fde98ee17ae345cb5f6b5e2c27f5033e8ce79060200160405180910390a15050565b6000828152600260205260408120546001600160a01b0390811690831615610afd57610afd818486610f75565b6001600160a01b03811615610b3b57610b1a600085600080610e58565b6001600160a01b038116600090815260036020526040902080546000190190555b6001600160a01b03851615610b6a576001600160a01b0385166000908152600360205260409020805460010190555b60008481526002602052604080822080546001600160a01b0319166001600160a01b0389811691821790925591518793918516917fddf252ad1be2c89b69c2b068fc378daa952ba7f163c4a11628f55a4df523b3ef91a4949350505050565b600780546001600160a01b038381166001600160a01b0319831681179093556040519116919082907f8be0079c531659141344cd1fd0a4f28419497f9722a3daafe3b4186f6b6457e090600090a35050565b6001600160a01b038216610c4d57604051630b61174360e31b81526001600160a01b0383166004820152602401610501565b6001600160a01b03838116600081815260056020908152604080832094871680845294825291829020805460ff191686151590811790915591519182527f17307eab39ab6107e8899845ad3d59bd9653f200f220920489ca2b5937696c31910160405180910390a3505050565b6001600160a01b0383163b156106f857604051630a85bd0160e11b81526001600160a01b0384169063150b7a0290610cfc90339088908790879060040161171b565b6020604051808303816000875af1925050508015610d37575060408051601f3d908101601f19168201909252610d3491810190611758565b60015b610da0573d808015610d65576040519150601f19603f3d011682016040523d82523d6000602084013e610d6a565b606091505b508051600003610d9857604051633250574960e11b81526001600160a01b0385166004820152602401610501565b805181602001fd5b6001600160e01b03198116630a85bd0160e11b14610ddc57604051633250574960e11b81526001600160a01b0385166004820152602401610501565b5050505050565b6060610dee826109f3565b506000610e0660408051602081019091526000815290565b90506000815111610e265760405180602001604052806000815250610e51565b80610e3084610fd9565b604051602001610e419291906116ec565b6040516020818303038152906040525b9392505050565b8080610e6c57506001600160a01b03821615155b15610f2e576000610e7c846109f3565b90506001600160a01b03831615801590610ea85750826001600160a01b0316816001600160a01b031614155b8015610ebb5750610eb98184610961565b155b15610ee45760405163a9fbf51f60e01b81526001600160a01b0384166004820152602401610501565b8115610f2c5783856001600160a01b0316826001600160a01b03167f8c5be1e5ebec7d5bd14f71427d1e84f3dd0314c0f7b2291e5b200ac8c7c3b92560405160405180910390a45b505b5050600090815260046020526040902080546001600160a01b0319166001600160a01b0392909216919091179055565b610f68838361106c565b6107b36000848484610cba565b610f808383836110d1565b6107b3576001600160a01b038316610fae57604051637e27328960e01b815260048101829052602401610501565b60405163177e802f60e01b81526001600160a01b038316600482015260248101829052604401610501565b60606000610fe683611134565b600101905060008167ffffffffffffffff81111561100657611006611301565b6040519080825280601f01601f191660200182016040528015611030576020820181803683370190505b5090508181016020015b600019016f181899199a1a9b1b9c1cb0b131b232b360811b600a86061a8153600a850494508461103a57509392505050565b6001600160a01b03821661109657604051633250574960e11b815260006004820152602401610501565b60006110a483836000610ad0565b90506001600160a01b038116156107b3576040516339e3563760e11b815260006004820152602401610501565b60006001600160a01b038316158015906109595750826001600160a01b0316846001600160a01b0316148061110b575061110b8484610961565b806109595750506000908152600460205260409020546001600160a01b03908116911614919050565b60008072184f03e93ff9f4daa797ed6e38ed64bf6a1f0160401b83106111735772184f03e93ff9f4daa797ed6e38ed64bf6a1f0160401b830492506040015b6d04ee2d6d415b85acef8100000000831061119f576d04ee2d6d415b85acef8100000000830492506020015b662386f26fc1000083106111bd57662386f26fc10000830492506010015b6305f5e10083106111d5576305f5e100830492506008015b61271083106111e957612710830492506004015b606483106111fb576064830492506002015b600a83106103b55760010192915050565b6001600160e01b0319811681146109a057600080fd5b60006020828403121561123457600080fd5b8135610e518161120c565b60005b8381101561125a578181015183820152602001611242565b50506000910152565b6000815180845261127b81602086016020860161123f565b601f01601f19169290920160200192915050565b602081526000610e516020830184611263565b6000602082840312156112b457600080fd5b5035919050565b80356001600160a01b03811681146112d257600080fd5b919050565b600080604083850312156112ea57600080fd5b6112f3836112bb565b946020939093013593505050565b634e487b7160e01b600052604160045260246000fd5b600067ffffffffffffffff8084111561133257611332611301565b604051601f8501601f19908116603f0116810190828211818310171561135a5761135a611301565b8160405280935085815286868601111561137357600080fd5b858560208301376000602087830101525050509392505050565b6000806000606084860312156113a257600080fd5b6113ab846112bb565b925060208401359150604084013567ffffffffffffffff8111156113ce57600080fd5b8401601f810186136113df57600080fd5b6113ee86823560208401611317565b9150509250925092565b60008060006060848603121561140d57600080fd5b611416846112bb565b9250611424602085016112bb565b9150604084013590509250925092565b60006020828403121561144657600080fd5b610e51826112bb565b6000806040838503121561146257600080fd5b61146b836112bb565b91506020830135801515811461148057600080fd5b809150509250929050565b600080600080608085870312156114a157600080fd5b6114aa856112bb565b93506114b8602086016112bb565b925060408501359150606085013567ffffffffffffffff8111156114db57600080fd5b8501601f810187136114ec57600080fd5b6114fb87823560208401611317565b91505092959194509250565b6000806040838503121561151a57600080fd5b611523836112bb565b9150611531602084016112bb565b90509250929050565b600181811c9082168061154e57607f821691505b60208210810361156e57634e487b7160e01b600052602260045260246000fd5b50919050565b634e487b7160e01b600052603260045260246000fd5b601f8211156107b357600081815260208120601f850160051c810160208610156115b15750805b601f850160051c820191505b818110156115d0578281556001016115bd565b505050505050565b815167ffffffffffffffff8111156115f2576115f2611301565b61160681611600845461153a565b8461158a565b602080601f83116001811461163b57600084156116235750858301515b600019600386901b1c1916600185901b1785556115d0565b600085815260208120601f198616915b8281101561166a5788860151825594840194600190910190840161164b565b50858210156116885787850151600019600388901b60f8161c191681555b5050505050600190811b01905550565b808201808211156103b557634e487b7160e01b600052601160045260246000fd5b8381526001600160a01b03831660208201526060604082018190526000906116e390830184611263565b95945050505050565b600083516116fe81846020880161123f565b83519083019061171281836020880161123f565b01949350505050565b6001600160a01b038581168252841660208201526040810183905260806060820181905260009061174e90830184611263565b9695505050505050565b60006020828403121561176a57600080fd5b8151610e518161120c56fea2646970667358221220d920df897979c5431071026f79f04ee351396616d6ac7a6e3b3e11d0a434afe564736f6c63430008140033697066733a2f2f516d586a613251424b734e5739716e77396b4b66636d3235724a546f6d7741564a557258656b59464a6e567762672f526176656e636c61772e6a736f6e697066733a2f2f516d586a613251424b734e5739716e77396b4b66636d3235724a546f6d7741564a557258656b59464a6e567762672f487566666c65707566662e6a736f6e697066733a2f2f516d586a613251424b734e5739716e77396b4b66636d3235724a546f6d7741564a557258656b59464a6e567762672f4772796666696e646f722e6a736f6e697066733a2f2f516d586a613251424b734e5739716e77396b4b66636d3235724a546f6d7741564a557258656b59464a6e567762672f536c7974686572696e2e6a736f6e",
  "linkReferences": {},
  "deployedLinkReferences": {}
}