{
  "_format": "hh-sol-artifact-1",
  "contractName": "HogwartsNFT",
  "sourceName": "contracts/HogwartsNFT.sol",
  "abi": [
    {
      "inputs": [],
      "stateMutability": "nonpayable",
      "type": "constructor"
    },
    {
      "inputs": [
        {
          "internalType": "address",
          "name": "sender",
          "type": "address"
        },
        {
          "internalType": "uint256",
          "name": "tokenId",
          "type": "uint256"
        },
        {
          "internalType": "address",
          "name": "owner",
          "type": "address"
        }
      ],
      "name": "ERC721IncorrectOwner",
      "type": "error"
    },
    {
      "inputs": [
        {
          "internalType": "address",
          "name": "operator",
          "type": "address"
        },
        {
          "internalType": "uint256",
          "name": "tokenId",
          "type": "uint256"
        }
      ],
      "name": "ERC721InsufficientApproval",
      "type": "error"
    },
    {
      "inputs": [
        {
          "internalType": "address",
          "name": "approver",
          "type": "address"
        }
      ],
      "name": "ERC721InvalidApprover",
      "type": "error"
    },
    {
      "inputs": [
        {
          "internalType": "address",
          "name": "operator",
          "type": "address"
        }
      ],
      "name": "ERC721InvalidOperator",
      "type": "error"
    },
    {
      "inputs": [
        {
          "internalType": "address",
          "name": "owner",
          "type": "address"
        }
      ],
      "name": "ERC721InvalidOwner",
      "type": "error"
    },
    {
      "inputs": [
        {
          "internalType": "address",
          "name": "receiver",
          "type": "address"
        }
      ],
      "name": "ERC721InvalidReceiver",
      "type": "error"
    },
    {
      "inputs": [
        {
          "internalType": "address",
          "name": "sender",
          "type": "address"
        }
      ],
      "name": "ERC721InvalidSender",
      "type": "error"
    },
    {
      "inputs": [
        {
          "internalType": "uint256",
          "name": "tokenId",
          "type": "uint256"
        }
      ],
      "name": "ERC721NonexistentToken",
      "type": "error"
    },
    {
      "inputs": [
        {
          "internalType": "address",
          "name": "owner",
          "type": "address"
        }
      ],
      "name": "OwnableInvalidOwner",
      "type": "error"
    },
    {
      "inputs": [
        {
          "internalType": "address",
          "name": "account",
          "type": "address"
        }
      ],
      "name": "OwnableUnauthorizedAccount",
      "type": "error"
    },
    {
      "anonymous": false,
      "inputs": [
        {
          "indexed": true,
          "internalType": "address",
          "name": "owner",
          "type": "address"
        },
        {
          "indexed": true,
          "internalType": "address",
          "name": "approved",
          "type": "address"
        },
        {
          "indexed": true,
          "internalType": "uint256",
          "name": "tokenId",
          "type": "uint256"
        }
      ],
      "name": "Approval",
      "type": "event"
    },
    {
      "anonymous": false,
      "inputs": [
        {
          "indexed": true,
          "internalType": "address",
          "name": "owner",
          "type": "address"
        },
        {
          "indexed": true,
          "internalType": "address",
          "name": "operator",
          "type": "address"
        },
        {
          "indexed": false,
          "internalType": "bool",
          "name": "approved",
          "type": "bool"
        }
      ],
      "name": "ApprovalForAll",
      "type": "event"
    },
    {
      "anonymous": false,
      "inputs": [
        {
          "indexed": false,
          "internalType": "uint256",
          "name": "_fromTokenId",
          "type": "uint256"
        },
        {
          "indexed": false,
          "internalType": "uint256",
          "name": "_toTokenId",
          "type": "uint256"
        }
      ],
      "name": "BatchMetadataUpdate",
      "type": "event"
    },
    {
      "anonymous": false,
      "inputs": [
        {
          "indexed": false,
          "internalType": "uint256",
          "name": "_tokenId",
          "type": "uint256"
        }
      ],
      "name": "MetadataUpdate",
      "type": "event"
    },
    {
      "anonymous": false,
      "inputs": [
        {
          "indexed": false,
          "internalType": "uint256",
          "name": "house",
          "type": "uint256"
        },
        {
          "indexed": false,
          "internalType": "address",
          "name": "minter",
          "type": "address"
        },
        {
          "indexed": false,
          "internalType": "string",
          "name": "name",
          "type": "string"
        }
      ],
      "name": "NftMinted",
      "type": "event"
    },
    {
      "anonymous": false,
      "inputs": [
        {
          "indexed": true,
          "internalType": "address",
          "name": "previousOwner",
          "type": "address"
        },
        {
          "indexed": true,
          "internalType": "address",
          "name": "newOwner",
          "type": "address"
        }
      ],
      "name": "OwnershipTransferred",
      "type": "event"
    },
    {
      "anonymous": false,
      "inputs": [
        {
          "indexed": true,
          "internalType": "address",
          "name": "from",
          "type": "address"
        },
        {
          "indexed": true,
          "internalType": "address",
          "name": "to",
          "type": "address"
        },
        {
          "indexed": true,
          "internalType": "uint256",
          "name": "tokenId",
          "type": "uint256"
        }
      ],
      "name": "Transfer",
      "type": "event"
    },
    {
      "inputs": [
        {
          "internalType": "address",
          "name": "to",
          "type": "address"
        },
        {
          "internalType": "uint256",
          "name": "tokenId",
          "type": "uint256"
        }
      ],
      "name": "approve",
      "outputs": [],
      "stateMutability": "nonpayable",
      "type": "function"
    },
    {
      "inputs": [
        {
          "internalType": "address",
          "name": "owner",
          "type": "address"
        }
      ],
      "name": "balanceOf",
      "outputs": [
        {
          "internalType": "uint256",
          "name": "",
          "type": "uint256"
        }
      ],
      "stateMutability": "view",
      "type": "function"
    },
    {
      "inputs": [
        {
          "internalType": "uint256",
          "name": "tokenId",
          "type": "uint256"
        }
      ],
      "name": "getApproved",
      "outputs": [
        {
          "internalType": "address",
          "name": "",
          "type": "address"
        }
      ],
      "stateMutability": "view",
      "type": "function"
    },
    {
      "inputs": [
        {
          "internalType": "address",
          "name": "_user",
          "type": "address"
        }
      ],
      "name": "getHouseIndex",
      "outputs": [
        {
          "internalType": "uint256",
          "name": "",
          "type": "uint256"
        }
      ],
      "stateMutability": "view",
      "type": "function"
    },
    {
      "inputs": [
        {
          "internalType": "address",
          "name": "",
          "type": "address"
        }
      ],
      "name": "hasMinted",
      "outputs": [
        {
          "internalType": "bool",
          "name": "",
          "type": "bool"
        }
      ],
      "stateMutability": "view",
      "type": "function"
    },
    {
      "inputs": [
        {
          "internalType": "address",
          "name": "_user",
          "type": "address"
        }
      ],
      "name": "hasMintedNFT",
      "outputs": [
        {
          "internalType": "bool",
          "name": "",
          "type": "bool"
        }
      ],
      "stateMutability": "view",
      "type": "function"
    },
    {
      "inputs": [
        {
          "internalType": "address",
          "name": "owner",
          "type": "address"
        },
        {
          "internalType": "address",
          "name": "operator",
          "type": "address"
        }
      ],
      "name": "isApprovedForAll",
      "outputs": [
        {
          "internalType": "bool",
          "name": "",
          "type": "bool"
        }
      ],
      "stateMutability": "view",
      "type": "function"
    },
    {
      "inputs": [
        {
          "internalType": "address",
          "name": "recipient",
          "type": "address"
        },
        {
          "internalType": "uint256",
          "name": "house",
          "type": "uint256"
        },
        {
          "internalType": "string",
          "name": "name",
          "type": "string"
        }
      ],
      "name": "mintNFT",
      "outputs": [],
      "stateMutability": "nonpayable",
      "type": "function"
    },
    {
      "inputs": [],
      "name": "name",
      "outputs": [
        {
          "internalType": "string",
          "name": "",
          "type": "string"
        }
      ],
      "stateMutability": "view",
      "type": "function"
    },
    {
      "inputs": [],
      "name": "owner",
      "outputs": [
        {
          "internalType": "address",
          "name": "",
          "type": "address"
        }
      ],
      "stateMutability": "view",
      "type": "function"
    },
    {
      "inputs": [
        {
          "internalType": "uint256",
          "name": "tokenId",
          "type": "uint256"
        }
      ],
      "name": "ownerOf",
      "outputs": [
        {
          "internalType": "address",
          "name": "",
          "type": "address"
        }
      ],
      "stateMutability": "view",
      "type": "function"
    },
    {
      "inputs": [],
      "name": "renounceOwnership",
      "outputs": [],
      "stateMutability": "nonpayable",
      "type": "function"
    },
    {
      "inputs": [
        {
          "internalType": "address",
          "name": "",
          "type": "address"
        }
      ],
      "name": "s_addressToHouse",
      "outputs": [
        {
          "internalType": "uint256",
          "name": "",
          "type": "uint256"
        }
      ],
      "stateMutability": "view",
      "type": "function"
    },
    {
      "inputs": [
        {
          "internalType": "address",
          "name": "",
          "type": "address"
        }
      ],
      "name": "s_addressToName",
      "outputs": [
        {
          "internalType": "string",
          "name": "",
          "type": "string"
        }
      ],
      "stateMutability": "view",
      "type": "function"
    },
    {
      "inputs": [
        {
          "internalType": "uint256",
          "name": "",
          "type": "uint256"
        }
      ],
      "name": "s_requestIdToSender",
      "outputs": [
        {
          "internalType": "address",
          "name": "",
          "type": "address"
        }
      ],
      "stateMutability": "view",
      "type": "function"
    },
    {
      "inputs": [
        {
          "internalType": "address",
          "name": "from",
          "type": "address"
        },
        {
          "internalType": "address",
          "name": "to",
          "type": "address"
        },
        {
          "internalType": "uint256",
          "name": "tokenId",
          "type": "uint256"
        }
      ],
      "name": "safeTransferFrom",
      "outputs": [],
      "stateMutability": "nonpayable",
      "type": "function"
    },
    {
      "inputs": [
        {
          "internalType": "address",
          "name": "from",
          "type": "address"
        },
        {
          "internalType": "address",
          "name": "to",
          "type": "address"
        },
        {
          "internalType": "uint256",
          "name": "tokenId",
          "type": "uint256"
        },
        {
          "internalType": "bytes",
          "name": "data",
          "type": "bytes"
        }
      ],
      "name": "safeTransferFrom",
      "outputs": [],
      "stateMutability": "nonpayable",
      "type": "function"
    },
    {
      "inputs": [
        {
          "internalType": "address",
          "name": "operator",
          "type": "address"
        },
        {
          "internalType": "bool",
          "name": "approved",
          "type": "bool"
        }
      ],
      "name": "setApprovalForAll",
      "outputs": [],
      "stateMutability": "nonpayable",
      "type": "function"
    },
    {
      "inputs": [
        {
          "internalType": "bytes4",
          "name": "interfaceId",
          "type": "bytes4"
        }
      ],
      "name": "supportsInterface",
      "outputs": [
        {
          "internalType": "bool",
          "name": "",
          "type": "bool"
        }
      ],
      "stateMutability": "view",
      "type": "function"
    },
    {
      "inputs": [],
      "name": "symbol",
      "outputs": [
        {
          "internalType": "string",
          "name": "",
          "type": "string"
        }
      ],
      "stateMutability": "view",
      "type": "function"
    },
    {
      "inputs": [
        {
          "internalType": "uint256",
          "name": "tokenId",
          "type": "uint256"
        }
      ],
      "name": "tokenURI",
      "outputs": [
        {
          "internalType": "string",
          "name": "",
          "type": "string"
        }
      ],
      "stateMutability": "view",
      "type": "function"
    },
    {
      "inputs": [
        {
          "internalType": "address",
          "name": "from",
          "type": "address"
        },
        {
          "internalType": "address",
          "name": "to",
          "type": "address"
        },
        {
          "internalType": "uint256",
          "name": "tokenId",
          "type": "uint256"
        }
      ],
      "name": "transferFrom",
      "outputs": [],
      "stateMutability": "nonpayable",
      "type": "function"
    },
    {
      "inputs": [
        {
          "internalType": "address",
          "name": "newOwner",
          "type": "address"
        }
      ],
      "name": "transferOwnership",
      "outputs": [],
      "stateMutability": "nonpayable",
      "type": "function"
    }
  ],
  "bytecode": "0x610180604052604561010081815260809182919062001c4b61012039815260200160405180608001604052806045815260200162001c0660459139815260200160405180608001604052806044815260200162001bc260449139815260200160405180608001604052806044815260200162001c906044913990526200008a90600d90600462000195565b503480156200009857600080fd5b50336040518060400160405280600c81526020016b121bd9ddd85c9d1cc813919560a21b81525060405180604001604052806002815260200161048560f41b8152508160009081620000eb919062000311565b506001620000fa828262000311565b5050506001600160a01b0381166200012c57604051631e4fbdf760e01b81526000600482015260240160405180910390fd5b620001378162000143565b506000600c55620003dd565b600780546001600160a01b038381166001600160a01b0319831681179093556040519116919082907f8be0079c531659141344cd1fd0a4f28419497f9722a3daafe3b4186f6b6457e090600090a35050565b828054828255906000526020600020908101928215620001e0579160200282015b82811115620001e05782518290620001cf908262000311565b5091602001919060010190620001b6565b50620001ee929150620001f2565b5090565b80821115620001ee57600062000209828262000213565b50600101620001f2565b508054620002219062000282565b6000825580601f1062000232575050565b601f01602090049060005260206000209081019062000252919062000255565b50565b5b80821115620001ee576000815560010162000256565b634e487b7160e01b600052604160045260246000fd5b600181811c908216806200029757607f821691505b602082108103620002b857634e487b7160e01b600052602260045260246000fd5b50919050565b601f8211156200030c57600081815260208120601f850160051c81016020861015620002e75750805b601f850160051c820191505b818110156200030857828155600101620002f3565b5050505b505050565b81516001600160401b038111156200032d576200032d6200026c565b62000345816200033e845462000282565b84620002be565b602080601f8311600181146200037d5760008415620003645750858301515b600019600386901b1c1916600185901b17855562000308565b600085815260208120601f198616915b82811015620003ae578886015182559484019460019091019084016200038d565b5085821015620003cd5787850151600019600388901b60f8161c191681555b5050505050600190811b01905550565b6117d580620003ed6000396000f3fe608060405234801561001057600080fd5b506004361061014d5760003560e01c806370a08231116100c3578063b88d4fde1161007c578063b88d4fde146102f8578063c87b56dd1461030b578063cd6542321461031e578063e28cb25a1461033e578063e985e9c51461036a578063f2fde38b1461037d57600080fd5b806370a0823114610288578063715018a61461029b5780638da5cb5b146102a357806395d89b41146102b4578063a22cb465146102bc578063a36f573b146102cf57600080fd5b806323b872dd1161011557806323b872dd146101e257806333975f94146101f557806338e21cce1461020857806342842e0e1461022b5780634a4b36c21461023e5780636352211e1461027557600080fd5b806301ffc9a71461015257806306fdde031461017a578063081812fc1461018f578063095ea7b3146101ba5780631e576912146101cf575b600080fd5b61016561016036600461124c565b610390565b60405190151581526020015b60405180910390f35b6101826103bb565b60405161017191906112b9565b6101a261019d3660046112cc565b61044d565b6040516001600160a01b039091168152602001610171565b6101cd6101c8366004611301565b610476565b005b6101cd6101dd3660046113b7565b610485565b6101cd6101f0366004611422565b610673565b61018261020336600461145e565b6106fe565b61016561021636600461145e565b600a6020526000908152604090205460ff1681565b6101cd610239366004611422565b610798565b61026761024c36600461145e565b6001600160a01b031660009081526009602052604090205490565b604051908152602001610171565b6101a26102833660046112cc565b6107b8565b61026761029636600461145e565b6107c3565b6101cd61080b565b6007546001600160a01b03166101a2565b61018261081f565b6101cd6102ca366004611479565b61082e565b6101a26102dd3660046112cc565b6008602052600090815260409020546001600160a01b031681565b6101cd6103063660046114b5565b610839565b6101826103193660046112cc565b610850565b61026761032c36600461145e565b60096020526000908152604090205481565b61016561034c36600461145e565b6001600160a01b03166000908152600a602052604090205460ff1690565b610165610378366004611531565b610961565b6101cd61038b36600461145e565b61098f565b60006001600160e01b03198216632483248360e11b14806103b557506103b5826109cd565b92915050565b6060600080546103ca90611564565b80601f01602080910402602001604051908101604052809291908181526020018280546103f690611564565b80156104435780601f1061041857610100808354040283529160200191610443565b820191906000526020600020905b81548152906001019060200180831161042657829003601f168201915b5050505050905090565b600061045882610a1d565b506000828152600460205260409020546001600160a01b03166103b5565b610481828233610a56565b5050565b61048d610a63565b6001600160a01b0383166000908152600a602052604090205460ff161561050a5760405162461bcd60e51b815260206004820152602660248201527f596f75206861766520616c7265616479206d696e74656420796f757220686f756044820152651cd94813919560d21b60648201526084015b60405180910390fd5b600c546105178482610a90565b6105c681600d858154811061052e5761052e61159e565b90600052602060002001805461054390611564565b80601f016020809104026020016040519081016040528092919081815260200182805461056f90611564565b80156105bc5780601f10610591576101008083540402835291602001916105bc565b820191906000526020600020905b81548152906001019060200180831161059f57829003601f168201915b5050505050610aaa565b6001600160a01b0384166000908152600960209081526040808320869055600b90915290206105f58382611602565b506001600c600082825461060991906116c2565b90915550506001600160a01b0384166000908152600a602052604090819020805460ff19166001179055517ffe281bcdb072dfbddfafb1763ee8ba9b91ba790715c617af593493fe865ac73790610665908590879086906116e3565b60405180910390a150505050565b6001600160a01b03821661069d57604051633250574960e11b815260006004820152602401610501565b60006106aa838333610afa565b9050836001600160a01b0316816001600160a01b0316146106f8576040516364283d7b60e01b81526001600160a01b0380861660048301526024820184905282166044820152606401610501565b50505050565b600b602052600090815260409020805461071790611564565b80601f016020809104026020016040519081016040528092919081815260200182805461074390611564565b80156107905780601f1061076557610100808354040283529160200191610790565b820191906000526020600020905b81548152906001019060200180831161077357829003601f168201915b505050505081565b6107b383838360405180602001604052806000815250610839565b505050565b60006103b582610a1d565b60006001600160a01b0382166107ef576040516322718ad960e21b815260006004820152602401610501565b506001600160a01b031660009081526003602052604090205490565b610813610a63565b61081d6000610bf3565b565b6060600180546103ca90611564565b610481338383610c45565b610844848484610673565b6106f884848484610ce4565b606061085b82610a1d565b506000828152600660205260408120805461087590611564565b80601f01602080910402602001604051908101604052809291908181526020018280546108a190611564565b80156108ee5780601f106108c3576101008083540402835291602001916108ee565b820191906000526020600020905b8154815290600101906020018083116108d157829003601f168201915b50505050509050600061090c60408051602081019091526000815290565b9050805160000361091e575092915050565b815115610950578082604051602001610938929190611716565b60405160208183030381529060405292505050919050565b61095984610e0d565b949350505050565b6001600160a01b03918216600090815260056020908152604080832093909416825291909152205460ff1690565b610997610a63565b6001600160a01b0381166109c157604051631e4fbdf760e01b815260006004820152602401610501565b6109ca81610bf3565b50565b60006001600160e01b031982166380ac58cd60e01b14806109fe57506001600160e01b03198216635b5e139f60e01b145b806103b557506301ffc9a760e01b6001600160e01b03198316146103b5565b6000818152600260205260408120546001600160a01b0316806103b557604051637e27328960e01b815260048101849052602401610501565b6107b38383836001610e82565b6007546001600160a01b0316331461081d5760405163118cdaa760e01b8152336004820152602401610501565b610481828260405180602001604052806000815250610f88565b6000828152600660205260409020610ac28282611602565b506040518281527ff8e1a15aba9398e019f0b49df1a4fde98ee17ae345cb5f6b5e2c27f5033e8ce79060200160405180910390a15050565b6000828152600260205260408120546001600160a01b0390811690831615610b2757610b27818486610f9f565b6001600160a01b03811615610b6557610b44600085600080610e82565b6001600160a01b038116600090815260036020526040902080546000190190555b6001600160a01b03851615610b94576001600160a01b0385166000908152600360205260409020805460010190555b60008481526002602052604080822080546001600160a01b0319166001600160a01b0389811691821790925591518793918516917fddf252ad1be2c89b69c2b068fc378daa952ba7f163c4a11628f55a4df523b3ef91a4949350505050565b600780546001600160a01b038381166001600160a01b0319831681179093556040519116919082907f8be0079c531659141344cd1fd0a4f28419497f9722a3daafe3b4186f6b6457e090600090a35050565b6001600160a01b038216610c7757604051630b61174360e31b81526001600160a01b0383166004820152602401610501565b6001600160a01b03838116600081815260056020908152604080832094871680845294825291829020805460ff191686151590811790915591519182527f17307eab39ab6107e8899845ad3d59bd9653f200f220920489ca2b5937696c31910160405180910390a3505050565b6001600160a01b0383163b156106f857604051630a85bd0160e11b81526001600160a01b0384169063150b7a0290610d26903390889087908790600401611745565b6020604051808303816000875af1925050508015610d61575060408051601f3d908101601f19168201909252610d5e91810190611782565b60015b610dca573d808015610d8f576040519150601f19603f3d011682016040523d82523d6000602084013e610d94565b606091505b508051600003610dc257604051633250574960e11b81526001600160a01b0385166004820152602401610501565b805181602001fd5b6001600160e01b03198116630a85bd0160e11b14610e0657604051633250574960e11b81526001600160a01b0385166004820152602401610501565b5050505050565b6060610e1882610a1d565b506000610e3060408051602081019091526000815290565b90506000815111610e505760405180602001604052806000815250610e7b565b80610e5a84611003565b604051602001610e6b929190611716565b6040516020818303038152906040525b9392505050565b8080610e9657506001600160a01b03821615155b15610f58576000610ea684610a1d565b90506001600160a01b03831615801590610ed25750826001600160a01b0316816001600160a01b031614155b8015610ee55750610ee38184610961565b155b15610f0e5760405163a9fbf51f60e01b81526001600160a01b0384166004820152602401610501565b8115610f565783856001600160a01b0316826001600160a01b03167f8c5be1e5ebec7d5bd14f71427d1e84f3dd0314c0f7b2291e5b200ac8c7c3b92560405160405180910390a45b505b5050600090815260046020526040902080546001600160a01b0319166001600160a01b0392909216919091179055565b610f928383611096565b6107b36000848484610ce4565b610faa8383836110fb565b6107b3576001600160a01b038316610fd857604051637e27328960e01b815260048101829052602401610501565b60405163177e802f60e01b81526001600160a01b038316600482015260248101829052604401610501565b606060006110108361115e565b600101905060008167ffffffffffffffff8111156110305761103061132b565b6040519080825280601f01601f19166020018201604052801561105a576020820181803683370190505b5090508181016020015b600019016f181899199a1a9b1b9c1cb0b131b232b360811b600a86061a8153600a850494508461106457509392505050565b6001600160a01b0382166110c057604051633250574960e11b815260006004820152602401610501565b60006110ce83836000610afa565b90506001600160a01b038116156107b3576040516339e3563760e11b815260006004820152602401610501565b60006001600160a01b038316158015906109595750826001600160a01b0316846001600160a01b0316148061113557506111358484610961565b806109595750506000908152600460205260409020546001600160a01b03908116911614919050565b60008072184f03e93ff9f4daa797ed6e38ed64bf6a1f0160401b831061119d5772184f03e93ff9f4daa797ed6e38ed64bf6a1f0160401b830492506040015b6d04ee2d6d415b85acef810000000083106111c9576d04ee2d6d415b85acef8100000000830492506020015b662386f26fc1000083106111e757662386f26fc10000830492506010015b6305f5e10083106111ff576305f5e100830492506008015b612710831061121357612710830492506004015b60648310611225576064830492506002015b600a83106103b55760010192915050565b6001600160e01b0319811681146109ca57600080fd5b60006020828403121561125e57600080fd5b8135610e7b81611236565b60005b8381101561128457818101518382015260200161126c565b50506000910152565b600081518084526112a5816020860160208601611269565b601f01601f19169290920160200192915050565b602081526000610e7b602083018461128d565b6000602082840312156112de57600080fd5b5035919050565b80356001600160a01b03811681146112fc57600080fd5b919050565b6000806040838503121561131457600080fd5b61131d836112e5565b946020939093013593505050565b634e487b7160e01b600052604160045260246000fd5b600067ffffffffffffffff8084111561135c5761135c61132b565b604051601f8501601f19908116603f011681019082821181831017156113845761138461132b565b8160405280935085815286868601111561139d57600080fd5b858560208301376000602087830101525050509392505050565b6000806000606084860312156113cc57600080fd5b6113d5846112e5565b925060208401359150604084013567ffffffffffffffff8111156113f857600080fd5b8401601f8101861361140957600080fd5b61141886823560208401611341565b9150509250925092565b60008060006060848603121561143757600080fd5b611440846112e5565b925061144e602085016112e5565b9150604084013590509250925092565b60006020828403121561147057600080fd5b610e7b826112e5565b6000806040838503121561148c57600080fd5b611495836112e5565b9150602083013580151581146114aa57600080fd5b809150509250929050565b600080600080608085870312156114cb57600080fd5b6114d4856112e5565b93506114e2602086016112e5565b925060408501359150606085013567ffffffffffffffff81111561150557600080fd5b8501601f8101871361151657600080fd5b61152587823560208401611341565b91505092959194509250565b6000806040838503121561154457600080fd5b61154d836112e5565b915061155b602084016112e5565b90509250929050565b600181811c9082168061157857607f821691505b60208210810361159857634e487b7160e01b600052602260045260246000fd5b50919050565b634e487b7160e01b600052603260045260246000fd5b601f8211156107b357600081815260208120601f850160051c810160208610156115db5750805b601f850160051c820191505b818110156115fa578281556001016115e7565b505050505050565b815167ffffffffffffffff81111561161c5761161c61132b565b6116308161162a8454611564565b846115b4565b602080601f831160018114611665576000841561164d5750858301515b600019600386901b1c1916600185901b1785556115fa565b600085815260208120601f198616915b8281101561169457888601518255948401946001909101908401611675565b50858210156116b25787850151600019600388901b60f8161c191681555b5050505050600190811b01905550565b808201808211156103b557634e487b7160e01b600052601160045260246000fd5b8381526001600160a01b038316602082015260606040820181905260009061170d9083018461128d565b95945050505050565b60008351611728818460208801611269565b83519083019061173c818360208801611269565b01949350505050565b6001600160a01b03858116825284166020820152604081018390526080606082018190526000906117789083018461128d565b9695505050505050565b60006020828403121561179457600080fd5b8151610e7b8161123656fea2646970667358221220ef40b37c09a6de9228a81660557632d7fc3a87f533a63a75297e9a7e3d8bb60f64736f6c63430008140033697066733a2f2f516d586a613251424b734e5739716e77396b4b66636d3235724a546f6d7741564a557258656b59464a6e567762672f526176656e636c61772e6a736f6e697066733a2f2f516d586a613251424b734e5739716e77396b4b66636d3235724a546f6d7741564a557258656b59464a6e567762672f487566666c65707566662e6a736f6e697066733a2f2f516d586a613251424b734e5739716e77396b4b66636d3235724a546f6d7741564a557258656b59464a6e567762672f4772796666696e646f722e6a736f6e697066733a2f2f516d586a613251424b734e5739716e77396b4b66636d3235724a546f6d7741564a557258656b59464a6e567762672f536c7974686572696e2e6a736f6e",
  "linkReferences": {},
  "deployedLinkReferences": {}
}