{
  "_format": "hh-sol-artifact-1",
  "contractName": "RandomHouseAssignment",
  "sourceName": "contracts/RandomHouseAssignment.sol",
  "abi": [
    {
      "inputs": [
        {
          "internalType": "address",
          "name": "_nftContract",
          "type": "address"
        }
      ],
      "stateMutability": "nonpayable",
      "type": "constructor"
    },
    {
      "anonymous": false,
      "inputs": [
        {
          "indexed": false,
          "internalType": "address",
          "name": "minter",
          "type": "address"
        },
        {
          "indexed": false,
          "internalType": "uint256",
          "name": "house",
          "type": "uint256"
        }
      ],
      "name": "NftMinted",
      "type": "event"
    },
    {
      "anonymous": false,
      "inputs": [
        {
          "indexed": false,
          "internalType": "address",
          "name": "requester",
          "type": "address"
        }
      ],
      "name": "NftRequested",
      "type": "event"
    },
    {
      "inputs": [
        {
          "internalType": "address",
          "name": "",
          "type": "address"
        }
      ],
      "name": "hasRequested",
      "outputs": [
        {
          "internalType": "bool",
          "name": "",
          "type": "bool"
        }
      ],
      "stateMutability": "view",
      "type": "function"
    },
    {
      "inputs": [],
      "name": "nftContract",
      "outputs": [
        {
          "internalType": "contract HogwartsNFT",
          "name": "",
          "type": "address"
        }
      ],
      "stateMutability": "view",
      "type": "function"
    },
    {
      "inputs": [
        {
          "internalType": "string",
          "name": "name",
          "type": "string"
        }
      ],
      "name": "requestNFT",
      "outputs": [],
      "stateMutability": "nonpayable",
      "type": "function"
    }
  ],
  "bytecode": "0x608060405234801561001057600080fd5b5060405161067238038061067283398101604081905261002f91610054565b600080546001600160a01b0319166001600160a01b0392909216919091179055610084565b60006020828403121561006657600080fd5b81516001600160a01b038116811461007d57600080fd5b9392505050565b6105df806100936000396000f3fe608060405234801561001057600080fd5b50600436106100415760003560e01c8063a409eb7b14610046578063adc50c341461007e578063d56d229d14610093575b600080fd5b6100696100543660046102e1565b60026020526000908152604090205460ff1681565b60405190151581526020015b60405180910390f35b61009161008c366004610327565b6100be565b005b6000546100a6906001600160a01b031681565b6040516001600160a01b039091168152602001610075565b3360009081526002602052604090205460ff1615610162576040517f08c379a000000000000000000000000000000000000000000000000000000000815260206004820152602160248201527f596f75206861766520616c72656164792072657175657374656420616e204e4660448201527f5400000000000000000000000000000000000000000000000000000000000000606482015260840160405180910390fd5b33600090815260016020526040902061017b8282610461565b50336000818152600260209081526040808320805460ff1916600117905580514281840181905281830152446060808301919091526bffffffffffffffffffffffff1995901b94909416608085015280516074818603018152609490940190528251920191909120906101ef600483610521565b6000546040517f1e5769120000000000000000000000000000000000000000000000000000000081529192506001600160a01b031690631e5769129061023d90339085908890600401610543565b600060405180830381600087803b15801561025757600080fd5b505af115801561026b573d6000803e3d6000fd5b50506040513381527fa2d573a5ffbecd36ba5b0d27aacc103803ffd389e0828d722dee87bf357110c19250602001905060405180910390a160408051338152602081018390527ff2b290a76feb54be358b555507421d765609171aefa0646f109a653228ff81b8910160405180910390a1505050565b6000602082840312156102f357600080fd5b81356001600160a01b038116811461030a57600080fd5b9392505050565b634e487b7160e01b600052604160045260246000fd5b60006020828403121561033957600080fd5b813567ffffffffffffffff8082111561035157600080fd5b818401915084601f83011261036557600080fd5b81358181111561037757610377610311565b604051601f8201601f19908116603f0116810190838211818310171561039f5761039f610311565b816040528281528760208487010111156103b857600080fd5b826020860160208301376000928101602001929092525095945050505050565b600181811c908216806103ec57607f821691505b60208210810361040c57634e487b7160e01b600052602260045260246000fd5b50919050565b601f82111561045c57600081815260208120601f850160051c810160208610156104395750805b601f850160051c820191505b8181101561045857828155600101610445565b5050505b505050565b815167ffffffffffffffff81111561047b5761047b610311565b61048f8161048984546103d8565b84610412565b602080601f8311600181146104c457600084156104ac5750858301515b600019600386901b1c1916600185901b178555610458565b600085815260208120601f198616915b828110156104f3578886015182559484019460019091019084016104d4565b50858210156105115787850151600019600388901b60f8161c191681555b5050505050600190811b01905550565b60008261053e57634e487b7160e01b600052601260045260246000fd5b500690565b6001600160a01b038416815260006020848184015260606040840152835180606085015260005b818110156105865785810183015185820160800152820161056a565b506000608082860101526080601f19601f8301168501019250505094935050505056fea26469706673582212200f32a649e345f85d94f51ac252421323ddc25f0e3a414c94702b5e15b1f98fef64736f6c63430008140033",
  "linkReferences": {},
  "deployedLinkReferences": {}
}