{
  "_format": "hh-sol-artifact-1",
  "contractName": "RandomHouseAssignment",
  "sourceName": "contracts/RandomHouseAssignment.sol",
  "abi": [
    {
      "inputs": [
        {
          "internalType": "address",
          "name": "_nftContract",
          "type": "address"
        },
        {
          "internalType": "address",
          "name": "vrfCoordinatorV2Address",
          "type": "address"
        },
        {
          "internalType": "uint64",
          "name": "subId",
          "type": "uint64"
        },
        {
          "internalType": "bytes32",
          "name": "keyHash",
          "type": "bytes32"
        },
        {
          "internalType": "uint32",
          "name": "callbackGasLimit",
          "type": "uint32"
        }
      ],
      "stateMutability": "nonpayable",
      "type": "constructor"
    },
    {
      "inputs": [
        {
          "internalType": "address",
          "name": "have",
          "type": "address"
        },
        {
          "internalType": "address",
          "name": "want",
          "type": "address"
        }
      ],
      "name": "OnlyCoordinatorCanFulfill",
      "type": "error"
    },
    {
      "anonymous": false,
      "inputs": [
        {
          "indexed": true,
          "internalType": "uint256",
          "name": "requestId",
          "type": "uint256"
        },
        {
          "indexed": false,
          "internalType": "address",
          "name": "requester",
          "type": "address"
        }
      ],
      "name": "NftRequested",
      "type": "event"
    },
    {
      "inputs": [],
      "name": "nftContract",
      "outputs": [
        {
          "internalType": "contract HogwartsNFT",
          "name": "",
          "type": "address"
        }
      ],
      "stateMutability": "view",
      "type": "function"
    },
    {
      "inputs": [
        {
          "internalType": "uint256",
          "name": "requestId",
          "type": "uint256"
        },
        {
          "internalType": "uint256[]",
          "name": "randomWords",
          "type": "uint256[]"
        }
      ],
      "name": "rawFulfillRandomWords",
      "outputs": [],
      "stateMutability": "nonpayable",
      "type": "function"
    },
    {
      "inputs": [
        {
          "internalType": "string",
          "name": "name",
          "type": "string"
        }
      ],
      "name": "requestNFT",
      "outputs": [],
      "stateMutability": "nonpayable",
      "type": "function"
    }
  ],
  "bytecode": "0x60a060405234801561001057600080fd5b506040516108b63803806108b683398101604081905261002f916100c5565b6001600160a01b039384166080819052600080546001600160a01b0319169690951695909517909355600180546001600160e01b031916909417600160a01b6001600160401b039390931692909202919091179092556002919091556003805463ffffffff191663ffffffff909216919091179055610140565b80516001600160a01b03811681146100c057600080fd5b919050565b600080600080600060a086880312156100dd57600080fd5b6100e6866100a9565b94506100f4602087016100a9565b60408701519094506001600160401b038116811461011157600080fd5b60608701516080880151919450925063ffffffff8116811461013257600080fd5b809150509295509295909350565b6080516107566101606000396000818160a8015260ea01526107566000f3fe608060405234801561001057600080fd5b50600436106100415760003560e01c80631fe543e314610046578063adc50c341461005b578063d56d229d1461006e575b600080fd5b6100596100543660046103da565b61009d565b005b61005961006936600461048c565b610129565b600054610081906001600160a01b031681565b6040516001600160a01b03909116815260200160405180910390f35b336001600160a01b037f0000000000000000000000000000000000000000000000000000000000000000161461011b5760405163073e64fd60e21b81523360048201526001600160a01b037f000000000000000000000000000000000000000000000000000000000000000016602482015260440160405180910390fd5b6101258282610249565b5050565b60018054600254600380546040516305d3b1d360e41b81526004810193909352600160a01b840467ffffffffffffffff166024840152604483019190915263ffffffff16606482015260848101929092526000916001600160a01b0390911690635d3b1d309060a4016020604051808303816000875af11580156101b1573d6000803e3d6000fd5b505050506040513d601f19601f820116820180604052508101906101d59190610521565b600081815260046020908152604080832080546001600160a01b0319163390811790915583526005909152902090915061020f83826105c3565b5060405133815281907ff873236e6cc0ecc5be1a9a35c95ee5b8d1ac4cc7bfef0cc5060391d6cc98e26b9060200160405180910390a25050565b6000828152600460209081526040808320546001600160a01b031680845260059092528220805491929161027c9061053a565b80601f01602080910402602001604051908101604052809291908181526020018280546102a89061053a565b80156102f55780601f106102ca576101008083540402835291602001916102f5565b820191906000526020600020905b8154815290600101906020018083116102d857829003601f168201915b50505050509050600060048460008151811061031357610313610683565b60200260200101516103259190610699565b600054604051630f2bb48960e11b81529192506001600160a01b031690631e5769129061035a908690859087906004016106bb565b600060405180830381600087803b15801561037457600080fd5b505af1158015610388573d6000803e3d6000fd5b505050505050505050565b634e487b7160e01b600052604160045260246000fd5b604051601f8201601f1916810167ffffffffffffffff811182821017156103d2576103d2610393565b604052919050565b600080604083850312156103ed57600080fd5b8235915060208084013567ffffffffffffffff8082111561040d57600080fd5b818601915086601f83011261042157600080fd5b81358181111561043357610433610393565b8060051b91506104448483016103a9565b818152918301840191848101908984111561045e57600080fd5b938501935b8385101561047c57843582529385019390850190610463565b8096505050505050509250929050565b6000602080838503121561049f57600080fd5b823567ffffffffffffffff808211156104b757600080fd5b818501915085601f8301126104cb57600080fd5b8135818111156104dd576104dd610393565b6104ef601f8201601f191685016103a9565b9150808252868482850101111561050557600080fd5b8084840185840137600090820190930192909252509392505050565b60006020828403121561053357600080fd5b5051919050565b600181811c9082168061054e57607f821691505b60208210810361056e57634e487b7160e01b600052602260045260246000fd5b50919050565b601f8211156105be57600081815260208120601f850160051c8101602086101561059b5750805b601f850160051c820191505b818110156105ba578281556001016105a7565b5050505b505050565b815167ffffffffffffffff8111156105dd576105dd610393565b6105f1816105eb845461053a565b84610574565b602080601f831160018114610626576000841561060e5750858301515b600019600386901b1c1916600185901b1785556105ba565b600085815260208120601f198616915b8281101561065557888601518255948401946001909101908401610636565b50858210156106735787850151600019600388901b60f8161c191681555b5050505050600190811b01905550565b634e487b7160e01b600052603260045260246000fd5b6000826106b657634e487b7160e01b600052601260045260246000fd5b500690565b60018060a01b038416815260006020848184015260606040840152835180606085015260005b818110156106fd578581018301518582016080015282016106e1565b506000608082860101526080601f19601f8301168501019250505094935050505056fea2646970667358221220479050150a2516625b4d470d46bf67d7315b06602a1ed008b43ef1fef03d5cb964736f6c63430008140033",
  "linkReferences": {},
  "deployedLinkReferences": {}
}